:020000040100F9
:1010000028F90020691A0001D9350001DB350001FB
:10101000DF350001E3350001E73500010000000085
:10102000000000000000000000000000EB3500019F
:10103000ED35000100000000EF350001F135000141
:101040008D1A0001FB3500018D1A00018D1A000177
:101050008D1A00018D1A00018D1A00018D1A0001F0
:101060008D1A00018D1A00018D1A00018D1A0001E0
:101070008D1A00018D1A00018D1A00018D1A0001D0
:10108000E11000018D1A00018D1A00018D1A000176
:101090008D1A00018D1A0001B91600018D1A000188
:1010A0008D1A00018D1A00018D1A00018D1A0001A0
:1010B0008D1A0001914700018D1A00018D1A00015F
:1010C0008D1A00018D1A00018D1A0001DFF80CD075
:1010D0000DF040FA004800476512000128F9002091
:1010E00010B50021C24801F00DFFC249486A80478F
:1010F00010BD10B50024BF48016A1020884704467F
:1011000004F00F01BCA000F048FBBA48016A1120AE
:101110008847044604F00F01BCA000F03EFB10BD60
:1011200070B504462646602242EA4602521CD0B2FE
:10113000B04A116A8847054605F0010028B9C5F391
:101140004201B7A000F029FB04E0C5F34201BAA0B8
:1011500000F023FB70BD10B50024A648016A602092
:101160008847044604F0010028B9C4F34201B9A03D
:1011700000F013FB04E0C4F34201BCA000F00DFB3F
:1011800010BD70B5054600242E4608E09948016A56
:1011900020208847044604F0010000B900E0F5E78C
:1011A00000BF12E0402242EA4602D0B2914A116AE0
:1011B0008847044604F0010018B9B3A000F0EDFA26
:1011C00002E0B7A000F0E9FA00E0EBE700BF08E0BA
:1011D0008848016A70208847044604F0010000B97D
:1011E00000E0F5E700BF70BD10B5002408E08148BD
:1011F000016A30208847044604F0010000B900E08D
:10120000F5E700BF13E07B48016A50208847044699
:1012100004F0010028B9C4F34201A8A000F0BDFA0F
:1012200004E0C4F34201ABA000F0B7FA00E0EAE743
:1012300000BF204610BD70B504460025402242EA9A
:101240004402521CD0B26B4A116A8847054605F029
:10125000010018B9A6A000F0A0FA02E0AAA000F0D0
:101260009CFA70BD86B000250026AD4B0FCBCDE9B2
:101270000323CDE9010100F0DEF900F03DFA00F0B2
:1012800082F900F0ABF94FF4E13000F055FA59491A
:10129000C86980475748816A00208847A14800688C
:1012A0000590059820F480000590059820F00050E6
:1012B00005909D490598C1F8080140F26C519B4882
:1012C0000CF0E7FD9A489B4B9B4A01210090974800
:1012D00006F02DF909F096FB5522102101A80CF01B
:1012E000D1FD0122954901A802F0D1FC9DF804101E
:1012F0009248401E02F0A8FDAA22102101A80CF07D
:10130000C1FD9DF804108D48401E02F09DFD032292
:1013100001A98A48401E02F0CBFB03F0A5FA012088
:1013200008F053F88048016885A000F036FAFFF70E
:1013300012FF5CE0002006460546FFF7DAFE0020BB
:10134000FFF71FFF0020FFF71CFF0020FFF719FF2A
:101350000020FFF770FF0120FFF713FF0120FFF7C8
:1013600010FF0120FFF70DFF0120FFF764FF0220AF
:10137000FFF707FF0220FFF704FF0220FFF701FF3E
:101380000220FFF758FF0320FFF7FBFE0320FFF7C3
:10139000F8FE0320FFF7F5FE0320FFF74CFF0420C3
:1013A000FFF7EFFE0420FFF7ECFE0420FFF7E9FE55
:1013B0000420FFF740FF002408E0FFF715FF00F0CE
:1013C000010008B96D1C00E0761C641CC82CF4DB1D
:1013D000324629465EA000F0E0F9FFF78AFE0120C0
:1013E000FFF79EFEFFF785FE5E4800F0D6F9A1E705
:1013F0000000024000300301636F6E646C69737417
:1014000031203D2025303278200D0A00636F6E6454
:101410006C69737432203D2025303278200D0A002B
:1014200064656C657465206973206F6B2020696446
:10143000203D25640D0A000064656C6574652069B3
:1014400073206661696C656420206964203D2564B1
:101450000D0A0000656D707479206973206F6B2030
:10146000206964203D25640D0A000000656D7074DC
:1014700079206973206661696C6564202069642045
:101480003D25640D0A00000073696E676C65206578
:101490006E726F6C6C206973206F6B200D0A0000F8
:1014A00073696E676C6520656E726F6C6C20697312
:1014B000206661696C65640D0A0000006D617463EB
:1014C00068206973206F6B2069643D2564200D0AD4
:1014D000000000006D6174636820697320666169B3
:1014E0006C65642069643D2564200D0A00000000DD
:1014F000706F73745F656E726F6C6C206973206FB0
:101500006B200D0A00000000706F73745F656E72CF
:101510006F6C6C206973206661696C65640D0A00EC
:101520001003010108F1014000F001405C020020BD
:10153000AC000020140100204800002001F001014F
:101540004672657173656C3A25780D0A00000000DB
:101550006F6B61793A25642C6572726F723A2564FB
:101560000D0A0000580C0101014601F007025B4B17
:1015700018684FF6FF031840594B034343EA022013
:10158000564B186070471FB50420FFF7EDFF102081
:10159000009007200190012002908DF80C00684611
:1015A00001F056FF0720FFF7DFFF002001900290B7
:1015B00001208DF80C000090684601F049FF1D20C5
:1015C00000F082F81D20009000200190022002907F
:1015D000684601F03DFF1FBD00BFFEE700B587B0C4
:1015E00000F05EFA0420FFF7BFFF00200490012006
:1015F00005908DF81800022000F0CEFA162000F0B9
:1016000063F84FF40060019002208DF808008DF817
:10161000090001A9334800F0A5FB022000F0BCFA44
:10162000162000F051F8022000F0B6FA162000F063
:101630004BF807B000BD10B50024002001F00EF8F3
:10164000012001F02AF8002001F070F8022001F0DA
:10165000AEF80121244800F014FF0121234800F0D6
:101660006DFF0121080700F0E3FE0121080700F0EB
:1016700029FF0121084600F0DBFE0121084600F0A9
:1016800021FF0121C80700F0FCFE00BF01E000BF00
:10169000641CB4F5204FFAD310BD10B50024144CCF
:1016A00002E020688047241D20680028F9D110BD81
:1016B00010B5FFF7F2FF10BD10B5022000F06CFA74
:1016C000162000F001F810BD00F01F02012191402A
:1016D000084A430942F82310704700000CED00E06F
:1016E0000000FA05206002400101300001012000E5
:1016F0000000002080E200E000B585B000208DF8F9
:101700000C00684601F07CF84FF47A710298B0FB47
:10171000F1F0049003A9074801F085FA01220021A5
:10172000044801F0B0FB01220021024801F05FFAF9
:1017300005B000BD000002401FB5044601224FF471
:101740004071504800F08AFA009403200190002074
:101750000290039069464C4801F090FC012211462A
:10176000494801F0EEFC1FBD70B504460E46464DDB
:1017700008E014F8010B286000BF284601F0AAFD1C
:101780000028FAD03000A6F10106F2D170BD10B5E4
:101790003D4C204601F09EFD10BD0FB410B5ADF5D7
:1017A000027D85A8019002A8019A84990CF018FF87
:1017B000044600200190214602A8FFF7D5FF0DF551
:1017C000027D10BC5DF814FB70B504460D46294639
:1017D0002046FFF7C9FF70BD2DE9F84306460F46C6
:1017E00078044FEA1048002527E0705D0409002CBA
:1017F00005DB092C03DC04F13000C4B202E004F183
:101800003700C4B28DF80040705D00F00F04002C6A
:1018100005DB092C03DC04F13000C4B202E004F162
:101820003700C4B28DF8014020208DF8020003215A
:101830006846FFF7C9FF681C85B2BD42D5DB0A20A8
:101840008DF8000001216846FFF7BEFFBDE8F88370
:101850000FB430B5C1B001AC45A800902046009A45
:1018600044990CF0BDFE20460CF01EFB85B22946C3
:101870002046FFF7A9FF0020009041B030BC5DF882
:1018800014FB0000006002400060014010B5002021
:101890006F49C1F816000846007910B146F6862057
:1018A00010BD6B48407950B169484079012806D095
:1018B00067484079022802D046F68620F0E764485F
:1018C000D0F81200102802D04FF4CE40E8E761486B
:1018D000007810B946F68410E2E700205D490870F0
:1018E0005B494A7988685C4907F062FED8E710B521
:1018F00000205749C1F816000846007930B1084663
:101900000079012802D046F6862010BD5048D0F854
:101910001200122802D04FF4CE40F6E74D4800786E
:1019200010B946F68410F0E700204A49087048498B
:101930008868002108F005FC0446B4F5104F08D172
:1019400043494B790A798968881C434908F095F81E
:10195000DBE72046D9E710B53D48007910B93C488F
:10196000407910B146F6862010BD394A528A91B2AC
:10197000374AD06808F079FE3548C16836480A68A9
:101980000260496841600120324908703048D0F84F
:1019900012002F49C1F816004FF41040E4E710B5CB
:1019A00000202B49C1F816000846007910B90846F6
:1019B000407910B146F6862010BD2548D0F81200B7
:1019C000112802D04FF4CE40F6E72149886807F08D
:1019D000C8FDF1E738B5214C00201D49C1F81600BB
:1019E000AA2000901E480122694683682046984735
:1019F0004FF4104038BD70B501260021144AC2F8DA
:101A000016101146C978927801EB02218DB200249C
:101A100013E004EB4401134A02EB41010988A94297
:101A200009D104EB44020F4B03EB4202D2F802103F
:101A30008847002603E0611C8CB2042CE9D300BF68
:101A40000EB14FF4DA400112014A1174507470BDA6
:101A5000DC070020180000201000002000F0010129
:101A600010B500201A00002009480A4908600068E3
:101A700085460948804709480047FEE7FEE7FEE73C
:101A8000FEE7FEE7FEE7FEE7FEE7FEE7FEE7000013
:101A90000010000108ED00E0E5480001CD10000154
:101AA000002009E00022404941F830204FF6FF7243
:101AB00001EBC0014A60401C0628F3D370472DE9B2
:101AC000F04104460F4615464CB1012C07D0022CBC
:101AD00005D0032C03D0042C01D0052C00D103E049
:101AE0004E2132A0FFF778FD380C000408B907B189
:101AF00003E04F212DA0FFF76FFD2DB1022D03D084
:101B0000012D01D0032D00D103E0502127A0FFF7C4
:101B100063FD002618E00120B040384098B122480B
:101B200050F8340072000321914088431E4941F867
:101B30003400084650F83400710005FA01F10843FA
:101B4000194941F83400761C102EE4D3BDE8F08129
:101B500000202349096808432249D1F8181140EAB6
:101B600041002049D1F81C1140EA81001D49D1F8FB
:101B7000201140EAC1001B49D1F8241140EA0110AC
:101B80001849D1F8281140EA41107047014606482B
:101B900000EBC100406870474FF6FF72024901EB4D
:101BA000C0014A6070470000006802402E2E5C4D64
:101BB00043555F4C69627261726965735C4D48534D
:101BC0004350555F4472697665725C7372635C6DF5
:101BD00068736370755F657874692E630000000038
:101BE000146102400060024030B587B004461822FC
:101BF000FE4901A80CF026F9FD48844213D0FC48A8
:101C0000103084420FD0FA48203084420BD0F8487C
:101C10003030844207D0F6484030844203D0F44844
:101C20005030844200D103E03221F2A0FFF7D4FC0F
:101C3000002508E001A850F82500A04202D128465E
:101C400007B030BD6D1C062DF4DB4FF0FF30F7E719
:101C500010B50121080500F071FC10BD2DE9F0411F
:101C6000064688461746E248864213D0E0481030C0
:101C700086420FD0DE48203086420BD0DC48303020
:101C8000864207D0DA484030864203D0D8485030E8
:101C9000864200D104E040F28B11D6A0FFF79CFCF5
:101CA0004FEA18404FEA004018B9B8F1000F00D0D1
:101CB00004E04FF4C671CFA0FFF78EFC012F05D0D2
:101CC000022F03D0032F01D0042F00D104E040F2F3
:101CD0008D11C8A0FFF780FC3046FFF785FF044652
:101CE00000253BE00120A84000EA0800A8B3CE4848
:101CF00050F824006A00032191408843CA4941F802
:101D00002400012F06D0022F05D0032F0ED0042F60
:101D100022D116E020E0C44850F824006A000121D6
:101D200091400843C04941F8240015E0BE4850F8EE
:101D300024006A00022191400143BB4840F824106E
:101D40000AE0B94850F824106A000320904001438B
:101D5000B54840F8241000BF00BF6D1C102DC1D342
:101D6000BDE8F08170B504460D464FF0FF36A0483F
:101D7000844213D09E48103084420FD09C482030BB
:101D800084420BD09A483030844207D09848403083
:101D9000844203D096485030844200D103E054215D
:101DA00094A0FFF719FC28686FF30F0010B928689A
:101DB00000B103E055218FA0FFF70EFC2879012820
:101DC0000BD02879022808D02879032805D0287953
:101DD000052802D02879042800D103E0562185A0E7
:101DE000FFF7FAFB2046FFF7FFFE06466A792888D0
:101DF00081B22046FFF732FF6879022800D070BD1B
:101E00002879062855D2DFE800F054030C152A3F44
:101E1000A06829680843A060E06829688843E060FA
:101E200047E0A06829680843A060E0682968084383
:101E3000E0603EE0A06829688843A060E068296807
:101E40008843E0602068296888432060774830F83C
:101E5000160029880843754921F8160029E0A06872
:101E600029680843A060E06829680843E0602068AA
:101E70002968884320606D4830F816002988084397
:101E80006A4921F8160014E0A06829688843A06018
:101E9000E06829688843E06020682968084320607A
:101EA000624830F8160029688843604921F8160016
:101EB00000BF00BF00BFA2E74FF6FF710160012124
:101EC00001714171704770B505460C4600264848BF
:101ED000854213D04648103085420FD04448203008
:101EE00085420BD042483030854207D040484030D0
:101EF000854203D03E485030854200D103E0A52101
:101F00003CA0FFF769FB012C25D0022C23D0042C28
:101F100021D0082C1FD0102C1DD0202C1BD0402CE1
:101F200019D0802C17D0B4F5807F14D0B4F5007F81
:101F300011D0B4F5806F0ED0B4F5006F0BD0B4F5AE
:101F4000805F08D0B4F5005F05D0B4F5804F02D0B3
:101F5000B4F5004F00D103E0A62126A0FFF73CFB1B
:101F6000286804EA104008B1012600E00026304647
:101F700070BD014608684FF6FF7202EA10407047D4
:101F800070B505460C4600261948854213D01848FE
:101F9000103085420FD01648203085420BD01448AF
:101FA0003030854207D012484030854203D0104877
:101FB0005030854200D103E0C8210EA0FFF70CFB92
:101FC000012C48D0022C46D0042C44D0082C42D0FE
:101FD000102C40D0202C3ED0402C3CD0802C3AD02D
:101FE000B4F5807F37D0B4F5007F21E020030101F4
:101FF000006002402E2E5C4D43555F4C6962726159
:10200000726965735C4D48534350555F44726976FD
:1020100065725C7372635C6D68736370755F677023
:10202000696F2E630000000080610240F607002007
:1020300011D0B4F5806F0ED0B4F5006F0BD0B4F5AD
:10204000805F08D0B4F5005F05D0B4F5804F02D0B2
:10205000B4F5004F00D104E0C921AFF26800FFF7EA
:10206000BBFA2868204008B1012600E0002630466F
:1020700070BD0146086880B270472DE9F041044602
:102080000D464FF0FF3600274FF00008E448844229
:1020900013D0E348103084420FD0E148203084420E
:1020A0000BD0DF483030844207D0DD4840308442D6
:1020B00003D0DB485030844200D104E0EC21AFF281
:1020C000CC00FFF789FA280C000408B905B104E038
:1020D000ED21AFF2E000FFF77FFA2046FFF784FD25
:1020E0000646D04830F8160000EA0507CD4830F81B
:1020F000160025EA0008CB4830F81600284018B131
:10210000A0683843A06001E0C4F80480BDE8F08115
:102110002DE9F04104460D464FF0FF3600274FF001
:102120000008BF48844213D0BD48103084420FD00D
:10213000BB48203084420BD0B9483030844207D0AD
:10214000B7484030844203D0B5485030844200D173
:1021500005E04FF48571AFF26410FFF73DFA280CEB
:10216000000408B905B105E040F20B11AFF27C1094
:10217000FFF732FA2046FFF737FD0646A94830F848
:10218000160000EA0507A74830F8160025EA0008FF
:10219000A44830F81600284018B1A068B843A060E1
:1021A00002E04FEA08406060BDE8F08170B5044687
:1021B0000D4616469A48844213D0994810308442FE
:1021C0000FD09748203084420BD09548303084425D
:1021D00007D093484030844203D091485030844225
:1021E00000D105E040F22911AFF2F810FFF7F4F941
:1021F000280C000408B905B105E04FF49571AFF261
:102200000C20FFF7E9F926B929462046FFF780FFA1
:1022100005E0012E03D129462046FFF72EFF70BDB1
:102220002DE9F04104460E4600256F1E7C4884428D
:1022300013D07B48103084420FD07948203084423C
:102240000BD077483030844207D075484030844204
:1022500003D073485030844200D105E04FF4A071A0
:10226000AFF27020FFF7B8F92046FFF7BDFC074634
:10227000002526E06B4830F817000121A9400840EE
:1022800078B10120A840304028B1A0680121A940C0
:102290000843A06014E0A0680121A9408843A06021
:1022A0000EE00120A840304028B121680120A8405C
:1022B0000143216004E020680121A9408843206097
:1022C0006D1C102DD6D3BDE8F08170B504460D46C7
:1022D00016465348844213D05148103084420FD0E0
:1022E0004F48203084420BD04D483030844207D0D4
:1022F0004B484030844203D049485030844200D19A
:1023000005E04FF4B571AFF21430FFF765F9280C12
:10231000000408B905B105E040F26B11AFF22C30B2
:10232000FFF75AF91EB1E0682843E06002E0E06878
:10233000A843E06070BD3C483C490860704770B5F8
:1023400005460C4616464DB1012D07D0022D05D08D
:10235000032D03D0042D01D0052D00D105E040F25E
:10236000BD11AFF27030FFF737F9ECB1012C1BD083
:10237000022C19D0032C17D0042C15D0052C13D007
:10238000062C11D0072C0FD0082C0DD0092C0BD007
:102390000A2C09D00B2C07D00C2C05D00D2C03D007
:1023A0000E2C01D00F2C00D105E04FF4DF71AFF2FD
:1023B000BC30FFF711F91EB1012E01D0022E00D161
:1023C00005E040F2BF11AFF2D430FFF705F917482E
:1023D00008300068AA000F21914088431049C1F8D5
:1023E0002802124808300068A90004FA01F10843E5
:1023F0000B49C1F828020D4800686A00032191408A
:1024000088430749C1F820020846D0F82002690035
:1024100006FA01F108430249C1F8200270BD00002C
:1024200000600240F607002055550300206202407C
:1024300070B504460D4604F0005040B904F08050D9
:1024400028B904F0020010B904F0010000B103E063
:102450003E21F0A0FFF7C0F80DB1012D00D103E03F
:102460003F21ECA0FFF7B8F82DB1F7488068204372
:10247000F549886004E0F4488068A043F249886028
:1024800070BD70B504460D46F048204008B104B157
:1024900003E06C21DFA0FFF79FF80DB1012D00D103
:1024A00003E06D21DBA0FFF797F82DB1E648406807
:1024B0002043E549486004E0E3484068A043E2491E
:1024C000486070BD70B504460D4604F0005070B908
:1024D00004F0805058B904F0020040B904F0010043
:1024E00028B904F0004010B904F0804000B103E0C6
:1024F0008D21C8A0FFF770F80DB1012D00D103E0C8
:102500008E21C4A0FFF768F8CF48406904F07041FD
:102510008843CD49486125B10846006920430861D8
:1025200004E0C9480069A043C7490861C64840693A
:1025300004F070410843C449486170BD70B5044659
:102540000D46C248204008B104B103E0BE21B1A04D
:10255000FFF742F80DB1012D00D103E0BF21ADA07E
:10256000FFF73AF82DB1B848C0682043B649C860B3
:1025700004E0B548C068A043B349C86070BD70B5F9
:1025800004460CB1022C00D103E0D321A1A0FFF737
:1025900023F8ACB9AC48006820F4E020AA490860F0
:1025A00008460068086000BFA74800680028FBD004
:1025B00072B600BF00BF00BF00BF30BF62B620E0F0
:1025C000022C1ED1A248C56845F04040A049C86011
:1025D000002000E0401C0A28FCDB9B48006820F437
:1025E000E020994908600846006840F4003008601F
:1025F00072B600BF00BF00BF00BF30BF62B69448D4
:10260000C56070BD9048406A9249084070478E4846
:10261000806A43F60F71084070478E488A49C86146
:1026200043F60E700862704729B1874AD2690243A7
:10263000854BDA6104E0844AD2698243824BDA61D5
:10264000704729B1804A126A02437F4B1A6204E044
:102650007D4A126A82437C4B1A62704710B5044669
:102660000CB1012C00D104E04FF4C27169A0FEF757
:10267000B3FF14B1012C0ED106E07348006820F4BA
:1026800000707149086006E06F48006840F400700F
:102690006D49086000BF00BF10BD10B50446012C95
:1026A00005D0022C03D0032C01D0042C00D104E06F
:1026B0004FF4CB7157A0FEF78FFF012C06D0022CF0
:1026C00010D0032C1AD0042C2ED123E05E480068D1
:1026D00020F030005C4908600846006840F0300097
:1026E000086021E05848006820F030005649086032
:1026F0000846006840F02000086015E05248006875
:1027000020F03000504908600846006840F0100092
:10271000086009E04C48006820F030004A49086031
:1027200008460068086000BF00BF10BD10B5044631
:102730001CB1012C01D0022C00D104E040F2B311F5
:1027400034A0FEF749FF24B3012C02D0022C2CD177
:102750000EE03D48006840F008003B49086008462C
:10276000006820F0040008600846006808601CE06B
:102770003548006840F008003349086008460068A2
:1027800020F0040008600846006840F0040008607B
:102790000BE02D48006820F008002B49086008462F
:1027A000006820F00400086000BF00BF10BD10B535
:1027B0000446012C01D0022C00D104E04FF4E77153
:1027C00014A0FEF709FF012C02D0022C16D109E05B
:1027D0001D48006820F001001B4908600846006899
:1027E00008600BE01848006820F0010016490860F6
:1027F0000846006840F00100086000BF00BF10BD3F
:102800001149096801F03001302927D112490160CE
:102810003DE000002E2E5C4D43555F4C69627261B5
:10282000726965735C4D48534350555F44726976D5
:1028300065725C7372635C6D68736370755F7379E6
:10284000736374726C2E630000F001400FCF75FC4F
:1028500000E001400FC7F503000E2707CB490968C8
:1028600001F03001202902D1C94901600FE0C749B8
:10287000096801F03001102902D1C649016006E063
:10288000C249096801F0300109B9C3490160BF4973
:10289000C96A4FF47A7251434160BC49096B514394
:1028A0008160704730B50B460021012A43D1BB4DF2
:1028B0005C1BAB4234D016DCB94DA3EB0504AB4234
:1028C00029D009DCB74C1C44FCB1B4F5005F1ED024
:1028D000B4F5405F2ED11CE0B4F5805F1DD0B4F597
:1028E000204F27D124E0B4F5405F1BD006DCB4F5BF
:1028F000805F14D0B4F5005F1CD114E0B4F5804FB4
:1029000014D0B4F5A04F15D10FE0012112E003213E
:1029100010E005210EE007210CE009210AE000BFCC
:102920000B2107E000BF0D2104E000BF0F2101E0F3
:10293000112100BF45E0022A43D1984D5C1BAB42F8
:1029400034D016DC964DA3EB0504AB4229D009DC4C
:10295000944C1C44FCB1B4F5005F1ED0B4F5405F4C
:102960002ED11CE0B4F5805F1DD0B4F5204F27D1E7
:1029700024E0B4F5405F1BD006DCB4F5805F14D0D2
:10298000B4F5005F1CD114E0B4F5804F14D0B4F559
:10299000A04F15D10FE0002112E0022110E0042128
:1029A0000EE006210CE008210AE000BF0A2107E042
:1029B00000BF0C2104E000BF0E2101E0102100BF88
:1029C00000BF794CA0420AD1704CA46B24F01F04C4
:1029D0006E4DAC632C46A46B0C43AC632DE0724C83
:1029E0005834A0420BD1694CA46B24F4F854674DC1
:1029F000AC632C46A46B44EA0124AC631DE06A4C32
:102A0000B034A0420BD1614CA46B24F4F8145F4D98
:102A1000AC632C46A46B44EA0144AC630DE0634C08
:102A2000A0420AD1594CA46B24F0F854574DAC6322
:102A30002C46A46B44EA0164AC6330BD10B5044677
:102A40005B49601A8C421AD009DC5A48204410B302
:102A5000B0F5E04F0DD0B0F5004F21D10AE0B0F550
:102A6000805F0DD0B0F5005F0FD0B0F5405F17D19B
:102A70000CE000BF01210802FFF760FD10E000BF7D
:102A800001214802FFF75AFD0AE000BF0121880238
:102A9000FFF754FD04E00121C802FFF74FFD00BF1E
:102AA00000BF10BD444A811A904226D009DC434938
:102AB000014469B1B1F5805F11D0B1F5005F31D14A
:102AC00014E0B1F5805F1FD0B1F5005F2AD122E09C
:102AD0002E49896921F080712C4A916122E02B49AD
:102AE000896941F08071294A91611BE02749896910
:102AF00021F00071254A916114E02449896941F06F
:102B00000071224A91610DE02049896921F08061BC
:102B10001E4A916106E01D49896941F080611B4AA6
:102B2000916100BF00BF704710B50446244820449F
:102B300048B1B0F5805F0BD0B0F5005F0DD0B0F5B7
:102B4000405F14D10EE001210846FFF7F7FC0EE0CC
:102B500001210220FFF7F2FC09E001210420FFF728
:102B6000EDFC04E001210820FFF7E8FC00BF00BFF6
:102B700010BD10B504460B48204420B9012188043B
:102B8000FFF7DCFC00BF00BF10BD000000F00140FB
:102B900000F36F0600D8B80500A24A040090024076
:102BA0000080014000C0FEBF00080040080900404E
:102BB00000B0024000E0FDBF00C002400070FDBF59
:102BC00000A0FEBF10B50446F748844200D103E0E0
:102BD0000621F6A0FEF700FDF3484042204420B94C
:102BE00001214805FFF7AAFC00BF00BF10BD10B5CA
:102BF00062B101EB810300EB83039B6843F00103A7
:102C000001EB810400EB8404A3600BE001EB810382
:102C100000EB83039B6823F0010301EB810400EBCD
:102C20008404A36010BD70B505460C46DE4885429D
:102C300000D103E01021DDA0FEF7CEFC207870B1BA
:102C4000207801280BD02078022808D0207803288B
:102C500005D02078042802D02078052800D103E090
:102C60001121D2A0FEF7B8FC217800222846FFF7F8
:102C7000BEFF0020217801EB810105EB8101886016
:102C8000207800EB800005EB8000806840F00200B7
:102C9000217801EB810105EB81018860207800EB50
:102CA000800005EB8000806820F00800217801EBAF
:102CB000810105EB81018860217801EB8101606869
:102CC00045F8210070BD70B505460C46B6488542F2
:102CD00000D103E01E21B5A0FEF77EFC207870B184
:102CE000207801280BD02078022808D020780328EB
:102CF00005D02078042802D02078052800D103E0F0
:102D00001F21AAA0FEF768FC217800222846FFF7C1
:102D10006EFF0020217801EB810105EB81018860C5
:102D2000207800EB800005EB8000806840F0020016
:102D3000217801EB810105EB81018860207800EBAF
:102D4000800005EB8000806840F00800217801EBEE
:102D5000810105EB81018860217801EB81016068C8
:102D600045F82100227805F1B000A16840F8221052
:102D700070BD70B505460C4616468B48854200D19D
:102D800003E03B2189A0FEF727FC4CB1012C07D0C2
:102D9000022C05D0032C03D0042C01D0052C00D12B
:102DA00003E03C2181A0FEF717FC0EB1012E00D1FB
:102DB00003E03D217DA0FEF70FFC66B904EB840023
:102DC00005EB8000806820F0080004EB840105EB2F
:102DD000810188600DE0012E0BD104EB840005EB2E
:102DE0008000806840F0080004EB840105EB81015D
:102DF000886070BD70B505460C4616466A48854227
:102E000000D103E04A2169A0FEF7E6FB4CB1012C9A
:102E100007D0022C05D0032C03D0042C01D0052CA4
:102E200000D103E04B2161A0FEF7D6FB04EB840048
:102E300045F8206070BD2DE9F04105460C46164668
:102E40001F465948854200D103E0522157A0FEF7A2
:102E5000C3FB4CB1012C07D0022C05D0032C03D0AE
:102E6000042C01D0052C00D103E053214FA0FEF724
:102E7000B3FB04EB840045F8206005F1B00040F896
:102E80002470BDE8F08170B505460C4616464648EC
:102E9000854200D103E05A2144A0FEF79DFB4CB1CE
:102EA000012C07D0022C05D0032C03D0042C01D018
:102EB000052C00D103E05B213CA0FEF78DFB0EB199
:102EC000012E00D103E05C2138A0FEF785FB66B13E
:102ED00004EB840005EB8000806820F0040004EB24
:102EE000840105EB810188600BE004EB840005EBB5
:102EF0008000806840F0040004EB840105EB810150
:102F0000886070BD38B505460C462748854200D11B
:102F100003E0662125A0FEF75FFB4CB1012C07D032
:102F2000022C05D0032C03D0042C01D0052C00D199
:102F300003E067211DA0FEF74FFB04EB840005EBC7
:102F40008000C068009038BD70B505460C4600266C
:102F50001548854200D103E06E2114A0FEF73CFB2A
:102F60004CB1012C07D0022C05D0032C03D0042C2B
:102F700001D0052C00D103E06F210CA0FEF72CFB43
:102F800004EB840005EB8000006900F0010008B14B
:102F9000012600E00026304670BD10B50446024808
:102FA00084421DD121E00000000002402E2E5C4D25
:102FB00043555F4C69627261726965735C4D485339
:102FC0004350555F4472697665725C7372635C6DE1
:102FD00068736370755F74696D65722E63000000BD
:102FE0007E21AFF23800FEF7F7FAD4F8A00010BD4A
:102FF00070B505460C4600261C48854200D104E009
:103000008521AFF25800FEF7E7FA4CB1012C07D04A
:10301000022C05D0032C03D0042C01D0052C00D1A8
:1030200004E08621AFF27C00FEF7D6FAD5F8A800BE
:103030000121A140084008B1012600E000263046E9
:1030400070BD10B504460948844200D104E09521C2
:10305000AFF2A800FEF7C0FAD4F8A80010BD0246EF
:1030600001EB810002EB80004068704700000240E5
:1030700010B504462046FFF757FD10BDFEB50546C6
:103080000C46206820B1D9492068884200D203E06C
:103090001821D7A0FEF7A0FA606840B16068012847
:1030A00005D06068022802D06068032800D103E0E0
:1030B0001921CFA0FEF790FAA06848B1A0680428B3
:1030C00001D1606820B1A068042802D1606800B115
:1030D00003E01A21C6A0FEF77FFAE06828B1E06895
:1030E000182802D0E068082800D103E01B21C0A006
:1030F000FEF772FA6846FFF783FBE86840F080004D
:10310000E86002980009216800EB5100B0FBF1F67D
:10311000F0B22860C6F307206860E86820F08000FD
:10312000E860D4E901010843E1680843E860FEBDB6
:103130004FF4165101600321416000218160C1609C
:1031400070471AB143680B43436002E043688B4306
:1031500043607047CAB20260704701460868C0B257
:10316000704721B1026942F02002026103E0026966
:1031700022F0200202617047016941F00101016102
:103180007047016921F0010101617047016941F057
:10319000020101617047016921F00201016170477C
:1031A0000A6922B1426842F08002426003E042684C
:1031B00022F080024260D0F8982042F001022AB149
:1031C000D0F8982022F00102C0F898204A6832B95D
:1031D000D0F8942022F00102C0F8942008E04A6858
:1031E000012A05D1D0F8942042F00102C0F89420C1
:1031F0008A68C0F89C20CA68C0F8A0200A7832B15A
:10320000D0F8982042F00102C0F8982005E0D0F8EC
:10321000982022F00102C0F8982070470021017028
:103220004160022181600321C1600021016170477A
:103230000246002041F001030BB140F0040009B147
:1032400040F00200C2F88800704731B1D0F89820F1
:1032500042F00102C0F8982005E0D0F8982022F052
:103260000102C0F89820704701464869704701463E
:10327000886970470146886870470146486900F0D0
:10328000800008B1012070470020FCE70146486932
:1032900000F0080008B1012070470020FCE701465B
:1032A000486900F0040008B1012070470020FCE7E5
:1032B0000146486900F0020008B101207047002073
:1032C000FCE70146486900F0010008B101207047A1
:1032D0000020FCE70146486900F0400008B10120E9
:1032E00070470020FCE70146486900F0200008B163
:1032F000012070470020FCE70146486900F02000EB
:1033000008B1012070470020FCE70146C86F00F0BB
:10331000100008B1012070470020FCE70146C86F8B
:1033200000F0080008B1012070470020FCE70146CA
:10333000C86F00F0040008B1012070470020FCE7CE
:103340000146C86F00F0020008B10120704700205C
:10335000FCE70146C86F00F0010008B1012070478A
:103360000020FCE7D0F8A81041F00101C0F8A81037
:10337000704731B1D0F8A42042F00102C0F8A42077
:1033800005E0D0F8A42022F00102C0F8A420704784
:1033900021B1026F42F00102026703E0026F22F0E6
:1033A0000102026770470146486FC0B2704770B5AE
:1033B00004460D460DB1012D00D104E040F2431149
:1033C0000BA0FEF709F925B1206940F0400020610B
:1033D00003E0206900F04000206170BDD0F890103B
:1033E00041F00101C0F890107047000021AA44008C
:1033F0002E2E5C4D43555F4C696272617269657334
:103400005C4D48534350555F4472697665725C73F6
:1034100072635C6D68736370755F756172742E633F
:103420000000000010B50446072C07D0062C05D07C
:10343000052C03D0042C01D0032C00D103E01D2166
:1034400054A0FEF7C9F85E4820435E49086010BDED
:103450002DE9F0470446207B10B1207B012800D1E4
:1034600003E02F214BA0FEF7B7F86068102800D2C8
:1034700003E0302147A0FEF7AFF8A068102800D283
:1034800003E0312143A0FEF7A7F8207B002855D0A8
:1034900000BF4C480068C0F3022005462846D4E926
:1034A00001230146C1F10708B8F1040F02D94FF01A
:1034B000040801E0C1F10708C44601F10408B8F1AD
:1034C000070F02D24FF0000801E0A1F103084746C0
:1034D0004FF0010808FA0CF8A8F1010808EA020800
:1034E00008FA07F84FF0010909FA07F9A9F10109EB
:1034F00009EA030948EA090600BF227851B23046BA
:10350000002908DA0207170E2E4A0C3201F00F03C9
:103510001B1FD75403E00207130E2B4A535400BF5E
:10352000217848B200F01F02012191404209920027
:1035300002F1E022C2F8001100BF0BE0217848B28E
:1035400000F01F0201219140204A430942F8231054
:1035500000BF00BFBDE8F08770B504460D46B4F16A
:10356000005F02D0B4F1102F00D103E0512109A077
:10357000FEF732F81648854200D203E0522105A03A
:10358000FEF72AF8134905EA010020430D49091FF7
:10359000086070BD2E2E5C4D43555F4C69627261B0
:1035A000726965735C4D48534350555F4472697648
:1035B00065725C7372635C6D6973632E63000000F7
:1035C0000000FA050CED00E000E400E080E100E01E
:1035D000FFFF0F0080FFFF1F704700BFFEE700BF27
:1035E000FEE700BFFEE700BFFEE770477047704789
:1035F00010B508A00AF0ECFF10BD10B50A4803F0A2
:103600000FFE012001218140084A430942F823109E
:1036100000BF10BD5379735469636B5F48616E647A
:103620006C65720D0A0000005C02002080E200E080
:1036300010B572B671B6F9480068804761B662B6D7
:1036400010BD50B9F649C96A01F2E7314FF47A72F8
:10365000B1FBF2F1F34A116001E0F24908607047F2
:10366000F148F2490860F248F24908607047EE48B4
:10367000C043EE490860EE48C043EE490860C043CD
:10368000E84924390860704770B504460426B4F14F
:10369000807F03D3B4F1887F00D203E0BF21E6A08E
:1036A000FDF79AFFE10B012000FA01F5DD4818381B
:1036B0000068284008B1032070BDDA482038046053
:1036C0000220D8492C390860D8480068D5492439E7
:1036D0000860D84800680860FFF7AAFF00BFD1481B
:1036E0002838006800F001000028F8D1CD482838BB
:1036F000006800F0020000B102263046DCE710B599
:103700000424C8481838006808B1032010BD4FF0E1
:103710008070C449203908600120C2492C390860F2
:10372000C2480068BF4924390860C2480068086080
:10373000FFF77EFF00BFBB482838006800F001009B
:103740000028F8D1B7482838006800F0020000B11E
:1037500002242046DAE72DE9F04704460E464FF0F2
:103760000409B4F1807F02D3B4F1887F05D3B4F1AA
:10377000007F03D3BD48844200D204E040F20F1121
:10378000ADA0FDF729FF04F0030000B904E040F20A
:103790001111A9A0FDF720FFB4F1807F0AD3B4F185
:1037A000887F07D2DFF87C82A8F118084FF0807577
:1037B000032706E0DFF86C82A8F110084FF00075CF
:1037C0000027601B000BF840012101FA00F5D8F832
:1037D0000000284010B10320BDE8F0870020914987
:1037E0002C3908608F481C380660001F04608F4821
:1037F00000688C49243908608E4800680860FFF72B
:1038000017FF00BF87482838006800F00100002833
:10381000F8D184482838006800F0020010B9206808
:10382000B04201D04FF002094846D5E730B5B0F1BB
:10383000807F08D3B0F1887F05D27A4A183A4FF0DA
:103840008071032313E0B0F1007F07D3874CA042BF
:1038500004D2744A103AE102002308E04FF0FF342A
:10386000704D183D2C606F4D103D2C6030BD441ADA
:10387000240BDC40012505FA04F114680C431460A4
:1038800000BFF3E730B50146B1F1807F08D3B1F155
:10389000887F05D2634C183C4FF0807203230CE004
:1038A000B1F1007F07D37148814204D25D4C103CD6
:1038B000C202002301E0002030BD881A000BD8406E
:1038C000012505FA00F22068104008B10120F3E755
:1038D0000020F1E7024612B95248183801E0514879
:1038E000103803680B4303607047014619B94D4A0D
:1038F000183A106802E04B4A103A1068704710B549
:1039000003460A461BB947481838011D02E04548DE
:103910001038011D0468144304600C6814430C60E3
:1039200010BD014619B93F4A143A106802E03D4AF9
:103930000C3A1068704730B5B0F1807F08D3B0F111
:10394000887F05D2374A183A4FF0807103230BE085
:10395000B0F1007F07D3454CA04204D2314A103A5F
:10396000E102002300E030BD441A240BDC400125B5
:1039700005FA04F114688C43146000BFF3E70246B3
:1039800012B92848183801E02648103803688B43DC
:103990000360704770B5B0F1807F09D3B0F1887FC4
:1039A00006D2204A183A131D4FF08071032417E005
:1039B000B0F1007F08D32D4DA84205D2194A103A24
:1039C000131DE90200240BE04FF0FF35154E183EA1
:1039D0003560361D3560361D3560361D356070BD6D
:1039E000451A2D0BE540012606FA05F115680D4331
:1039F00015601D680D431D6000BFF0E770B50146FE
:103A0000B1F1807F34D3B1F1887F31D2054C183CBD
:103A1000231D4FF08072032537E000004000002096
:103A200000F001402C140040A500CDAB3800002070
:103A30005A0034123C0000202E2E5C4D43555F4C42
:103A400069627261726965735C4D48534350555F9A
:103A50004472697665725C7372635C6D68736370DF
:103A6000755F666C6173682E6300000000400002A1
:103A7000B1F1007F07D3FE48814204D2FD4C231DE3
:103A8000C202002501E0002070BD881A000BE8404A
:103A9000012606FA00F220681043206018681043DF
:103AA00018601868104008B10120EDE70020EBE72E
:103AB0002DE9F74F84B004461546059F059F7819F8
:103AC0000290A3461DB9042007B0BDE8F08FB4F101
:103AD000807F0CD3B4F1887F09D26019401EB0F109
:103AE000807F04D36019401EB0F1887F0FD3B4F1FA
:103AF000007F0DD3DE4884420AD26019401EB0F127
:103B0000007F05D36019401ED949884200D205E0E4
:103B100040F25721AFF2E000FDF75EFD04F0030034
:103B200000B905E040F25921AFF2F400FDF754FD71
:103B3000B4F1007F0AD3CE48844207D2CD48019029
:103B40004FF0007003904FF0000907E0C9480838B3
:103B500001904FF0807003904FF00309264613E068
:103B60000398301A000B20FA09F0012101FA00FA3B
:103B70000198006800EA0A0008B10320A4E74FF4A6
:103B8000805000FA09F006446019B042E8D80020DD
:103B9000B84918390860B7481038C0F800B0DBF8E9
:103BA0000000B4490C39086049E00298C61B042E95
:103BB00001D9042000E0304606464FF0000AD04606
:103BC0000AE017F808004FEAC801884040EA0A0AEC
:103BD00008F1010000F0FF08B045F2D33F1D00BF1F
:103BE000A4481838006800F001000028F8D1A14866
:103BF0000C3800689F49103909680968884205D166
:103C00009C481838006800F0020008B102205BE709
:103C1000002098491C39086096480C38C0F800A06C
:103C2000001FC0F800B00BF1040B934800689149E5
:103C300014390860914800680860FFF7F9FC0298A1
:103C40008742B2D300BF8B481838006800F00100EB
:103C50000028F8D187480C3800688649103909686F
:103C60000968884205D183481838006800F00200CE
:103C700008B1022028E7042026E710B503460020FB
:103C800002E00C5C1C54401C9042FAD310BD2DE99C
:103C9000F74FADF6180D83468846DDF820080190F1
:103CA00008F1030076490840CDF81408DDF8200833
:103CB0004044401E00EA0109724808EA000709EA88
:103CC0000000CDF81008C8F30B00CDF80C08DDF8A3
:103CD0001008874242D13D46DDF81408401B860893
:103CE000002405E003A9286841F82400641C2D1D68
:103CF000B442F7D34D46C9F38906344605E003A91B
:103D0000286841F82400641C2D1DB4F5007FF6D30B
:103D100003A9DDF80C0801EB000A002404E01BF8FD
:103D200004000AF80400641CDDF820088442F6D37D
:103D30003846FFF7A9FC00240CE003A850F8240043
:103D4000C04330B103AA02EB840138190422FFF703
:103D5000AFFE641CB4F5007FEFD371E03D46DDF8A3
:103D60001408401B8608002405E003A9286841F8D0
:103D70002400641C2D1DB442F7D303A9DDF80C0800
:103D800001EB000ADDF81008A0EB08060198801B83
:103D900001900096002404E01BF804000AF80400D7
:103DA000641CB442F8D3DDF81408FFF76DFC00245E
:103DB0000CE003A850F82400C04330B103AA02EB82
:103DC000840138190422FFF773FE641CB4F5007FE8
:103DD000EFD34D46C9F38806344605E003A92868A9
:103DE00041F82400641C2D1DB4F5007FF6D30DF1BD
:103DF0000C0A00240098029008E002981BF80000CA
:103E00000AF80400641C0298401C02900198844245
:103E1000F3D34846FFF738FC00240EE003A850F81F
:103E20002400C04340B103AA02EB8401DDF810284E
:103E300010190422FFF73CFE641CB4F5007FEDD39B
:103E40000DF6240DBDE8F08F2DE9F84304460F462A
:103E50004FF0FF350A48204000680090084804EA07
:103E6000000904F00306C6F103063D400CE0000023
:103E7000004000021C140040380000203C000020DC
:103E8000FCFFFF0100F0FF0165F0FF054FF00008A7
:103E900006E0012000EB450508F1010000F0FF08F5
:103EA000B8EBC60FF5DB0098284000900422694665
:103EB0004846FFF7FDFDBDE8F88300002DE9F34F0C
:103EC0008BB08A46FD49FE48CDE908106420B0EB6E
:103ED000CA0F04D9002001460DB0BDE8F08F0024C0
:103EE0002546A34610E00B9911F80B10F54A5056E1
:103EF0000AF076F922462B46CDE9060109F0E8FFE3
:103F000004460D460BF1010BD345ECD34FEACA0032
:103F10000AF077F9CDE900010CF0D4F9CDE90401FC
:103F200025F00040CDE902400B462046DDE90312B2
:103F30000AF0E7F8CDE90601DDE908230AF0E1F827
:103F400006460F46304639460BF062FC80468946ED
:103F500040464946C0E72DE9F34F8FB08B466420B9
:103F6000B0EBCB0F04D90020014611B0BDE8F08FB3
:103F70004FEACB000A21B0FBF1F0C0084FEAC00ABB
:103F80004FEACB00B0FBFAF00C9000263746002039
:103F90000E904EE00024254600200D901BE04FEAD5
:103FA000EA710AEB5171CB10CDF81CA0DDE90D12BE
:103FB00002FB03120F99895CC34A50560AF010F9AC
:103FC00022462B46CDE9040109F082FF04460D4646
:103FD0000D98401C0D904FEAEA710AEB51720D9951
:103FE000B1EBE20FDBDB50460AF0FAF802460B4673
:103FF000CDE90601204629460AF083F804460D461D
:104000000022B24B204629460AF003F88046894632
:1040100042464B46404649460AF001F832463B4686
:10402000CDE9060109F054FF06460F460E98401CE4
:104030000E900E990C988142ACDB50460AF0D0F8F5
:104040000022A34BCDE9040109F0E9FF32463B46CB
:10405000CDE9060109F0E3FFCDE9080100224FF0A8
:104060008043DDE908010AF04CF8CDE904010C9821
:104070000AF0B6F800224FF08043CDE900010AF0C3
:1040800040F8CDE90201DDE9042308F05EF907906C
:104090000AF0A6F8CDE90A01DDE90A0165E72DE994
:1040A000F04F93B081468A464FEACA0012906420CE
:1040B000B0EBCA0F04D90020014613B0BDE8F08F61
:1040C0004FF0000B002405E019F804007E49085663
:1040D0008344641C5445F7D312980AF081F8CDE963
:1040E0000C0158460AF07CF8CDE90A01DDE90C2301
:1040F0000AF007F805460E4612980AF071F8CDE965
:1041000006010CF0DFF802460B46CDE9080100205D
:104110004FF0804109F0F5FF00226C4BCDE90C0116
:104120002846314609F075FF21F00041CDE90A012A
:10413000DDE90C230AF0A6F803D200210E910F91BD
:1041400091E00027B846002430E019F80410614AD5
:1041500050560AF045F83A464346CDE90C0109F0BD
:10416000B7FE07468846AAF10100A0421DD919F8FA
:10417000040000F0800028B1601C19F8000000F075
:10418000010050B119F8040000F0800068B9601C0B
:1041900019F8000000F0010038B100224E4B3846FB
:1041A000414609F095FE07468846641C5445CCD329
:1041B000129948000AF014F8CDE904010CF082F8D5
:1041C0002A463346CDE908010020434909F021FF82
:1041D0002A463346CDE9040100204FF0804109F022
:1041E0001EFFCDE90201DDE9042309F018FFCDE946
:1041F0000601DDE9082309F012FF2A463346CDE91E
:104200000C010020344909F004FFCDE906011298A1
:1042100009F0E6FF00224FF08043CDE9000109F0EC
:10422000FEFE2A463346CDE9020109F0F8FECDE94B
:104230000401DDE9062309F0F2FE3A464346CDE9E2
:10424000080109F0E9FE21F00041CDE90A01DDE9AC
:104250000C2309F056FFCDE91001DDE910010BF048
:10426000D7FACDE90E01DDE90E0126E72DE9F04F81
:10427000B3B0834689461C2112A809F00AFE032523
:10428000082020900120199002201A9003201B90F2
:1042900004201C9000211148CDE922101048CDE9DE
:1042A00024101048CDE926100F48CDE92810209899
:1042B00009FB00F02190219818E00000CD3B7F66BB
:1042C0009EA0F63F38030101380401010000E03FE1
:1042D00000001040380501010000F03F0080CB3F96
:1042E0000080D73F0080CD3F0000C83FB0F5C45FDD
:1042F00002DA2198802804DA0020014633B0BDE8B4
:10430000F08F002428E01BF80400F74911F900A001
:104310001998504502DD1298401C129000260CE0BE
:1043200019A850F82600504506D112A850F82600CA
:10433000401C12A941F82600761CAE42F0DD19A8F7
:1043400050F82500504506DA12A850F82500401C08
:1043500012A941F82500641C4C45D4D30027B84667
:1043600000245FE0484609F04CFFCDE90A0122A88D
:1043700000EBC40003C8CDE90801DDE90A2309F018
:104380004EFECDE90E01484609F03BFFCDE90201A2
:1043900022A800EBC40103C9CDE90001DDE9022335
:1043A00009F03DFECDE9060112A951F8240009F0FB
:1043B00028FFCDE90401DDE9062309F02AFECDE955
:1043C0000A01484609F01DFFCDE9020122A800EBD1
:1043D000C40003C8CDE90001DDE9022309F01FFE96
:1043E000CDE9060112A951F8240009F00AFFCDE930
:1043F0000401DDE9062309F00CFECDE90801DDE941
:104400000A2309F00CFECDE90C01DDE90E2309F0C9
:1044100078FE3A464346CDE9100109F059FD0746BA
:104420008846641CAC429DDD00224FF08043384634
:10443000414609F066FECDE90E01284609F0D0FE9E
:1044400000224FF08043CDE90A0109F05AFECDE980
:104450000C01DDE90E2307F078FF119009F0C0FE92
:10446000CDE93001DDE9300148E702469F484FF4CD
:10447000C453B3EBC10F03D98023B3EBC10F01D9F0
:104480009A48C01F704710B504464FF4806120461B
:1044900009F0FFFC002004F5806460602060A060EB
:1044A0004FF05A30E06000202061A4F5806410BD18
:1044B0008F48006840F010008D4908600846C068C9
:1044C00020F08040C8600846C06820F00040C86006
:1044D00070472DE9FF5F83460E460024DA463146D9
:1044E000584609F0D6FC4FEA161806F00F070FB130
:1044F00008F10108FFF7DCFF00F0DDF90025A9460F
:1045000046E04D4501D0002445E000BF00BF00BF9C
:104510007749096801F001010029F9D07449096857
:1045200001F0040109B100200DE0714949680091D2
:104530006F49496801916E49496802916C4949681F
:104540000391102000BF08B9002424E000F0B3F963
:10455000A8F10100A84208D910226946504609F086
:1045600071FC0AF1100A10340FE047B910226946B5
:10457000504609F067FC0AF1100A103405E03A468B
:104580006946504609F05EFC3C4409F101096D1C86
:104590004545B6D300BFB44204D03146584609F071
:1045A00078FC0024204604B0BDE8F09F0146D1F815
:1045B0001004B0F1A53F01D1012070470020FCE7B5
:1045C0000021C0F8101470470146D1F80804704764
:1045D00010B54848D0F8080410B91D2000F057F96C
:1045E00000BF4448D0F808040028FAD04148D0F869
:1045F0000414D0F80404401C3E4AC2F804041046D7
:1046000050F82140D0F80404FF2803D900201146B7
:10461000C1F804041D2000F045F93648D0F808041C
:10462000401E3449C1F808041D2000F030F920462E
:1046300010BD2DE9F04781460E46002534464F4611
:104640002C48FFF7B3FF08B100BF76E02948D0F847
:10465000080408B9FFF72CFF00BF00BF2548D0F8B9
:1046600008040028FAD022E02248D0F80414D0F838
:104670000404401C1F4AC2F80404104650F82100EC
:104680003860104690F804041146C1F804041D2057
:1046900000F008F91748D0F80804401E1549C1F881
:1046A00008041D2000F0F3F8241F2D1D3F1D042CCD
:1046B00004D31048D0F808040028D5D1042C39D2EE
:1046C0000C48D0F80804A8B30A48D0F804040949F3
:1046D00001EB800A4FF000080846D0F80404401CA3
:1046E000C1F8040400BF0EE0380601015343524DE7
:1046F00000E00140040800201AF8010B07F8080048
:104700006D1C08F10108A045F6D30024704890F80C
:1047100004046F49C1F804041D2000F0C3F86C487C
:10472000D0F80804401E6A49C1F808041D2000F0B2
:10473000AEF800BF002C90D100BFB54204D0314686
:10474000484609F0A6FB00252846BDE8F08702464A
:1047500000200CE000F001031BB15E4B1B691354F9
:1047600004E05C4B1B69C3F3C7031354401C88422D
:10477000F0D3704730B504460D4629462046FFF772
:10478000E6FF30BD534909688143524A11607047C2
:104790002DE9F0414F48006800F0040020B94D4871
:1047A000006800F0080028B14FF0A5304849C1F872
:1047B000100457E0002449E0464800680121A14068
:1047C000084030B114B9434E361D03E0414E08365F
:1047D00000E03AE03F480068A11C01228A401040F6
:1047E00028B14FF0A5303A49C1F8100427E0002560
:1047F00023E03748D0F80804FF281CD83168344833
:10480000D0F80024D0F80004401C314BC3F8000459
:10481000184640F82210D0F80004FF2803D90020E1
:104820001946C1F800042A48D0F80804401C284959
:10483000C1F8080400E037686D1C042DD9DB0121A4
:1048400001FA04F0FFF79EFF00BF641C022CB3D3F3
:104850001F48D0F80804B0F5807F02D11D2000F079
:1048600021F800BFBDE8F08110B51948FFF70BFE35
:10487000FFF71EFE00F01FF8002010BD70B50446C3
:104880000D46164629462046FFF774FF70BD00F01E
:104890001F02012191404209920002F1E022C2F878
:1048A0000011704700F01F02012191400A4A43099C
:1048B00042F8231070470748006820F001000549BE
:1048C00008600846006820F0020008607047000099
:1048D0000408002000E0014080E100E002480349B4
:1048E0000860704770470000006CDC024400002044
:1048F0000246122008802A48704702460420088099
:104900002848704770B505460C462DB92246264901
:1049100026A003F02CFC04E02246234929A003F042
:1049200026FC214870BD70B505460C4622461E493E
:104930002AA003F01CFC1C4870BD70B505460C464F
:104940002DB92246184928A003F011FC04E02246A4
:10495000154929A003F00BFC134870BD70B505463E
:104960000C462DB92246104927A003F000FC04E0B4
:1049700022460D4924A003F0FAFB0B4870BD70B528
:1049800005460C462DB92246074922A003F0EFFB4D
:1049900004E0224604491FA003F0E9FB024870BD71
:1049A00064000020800000203C9C00204D61737357
:1049B0002053746F7261676520696E204853204DE3
:1049C0006F6465004D6173732053746F7261676526
:1049D00020696E204653204D6F6465004D45474168
:1049E00048554E5400000000303030303030303008
:1049F0003030314100000000303030303030303065
:104A000030303142000000004D534320436F6E664A
:104A1000696700004D534320496E74657266616397
:104A2000650000007047704770477047704708B5D1
:104A300000220092C0EB0012D2000723B2FBF3F178
:104A400000BF009A521C00928A4200D908BDF8E7C4
:104A500010B504464FF47A7104FB01F0FFF7E7FF4D
:104A600010BD704701460020704703464FF40070A8
:104A70001060086000207047014670470146002022
:104A800070472DE9F04107460E4614461D46082C96
:104A90000BD264024FF6FF7000EA45256848011901
:104AA0002A46304609F0CEF956E0082C0ED3282CC1
:104AB0000CD2083C64024FF6FF7000EA45256148BD
:104AC00001192A46304609F0BDF945E0102C0ED3F5
:104AD000182C0CD2083C64024FF6FF7000EA452502
:104AE000594801192A46304609F0ACF934E0402C07
:104AF0000ED3482C0CD2403C64024FF6FF7000EA03
:104B00004525524801192A46304609F09BF923E011
:104B1000B4F5FC7F10D3B4F5007F0DD2A4F5FC747E
:104B200064024FF6FF7000EA4525484801192A46FD
:104B3000304609F087F90FE0B4F57E7F0CD3A4F579
:104B40007E7464024FF6FF7000EA45254048011963
:104B50002A46304609F076F90020BDE8F0812DE9BB
:104B6000F04107460E4614461D46082C0BD264023F
:104B70004FF6FF7000EA4525314908192A463146AB
:104B800009F060F956E0082C0ED3282C0CD2083C12
:104B900064024FF6FF7000EA45252A4908192A46A3
:104BA000314609F04FF945E0102C0ED3182C0CD2E9
:104BB000103C64024FF6FF7000EA452522490819AF
:104BC0002A46314609F03EF934E0402C0ED3482CF9
:104BD0000CD2403C64024FF6FF7000EA45251B49A9
:104BE00008192A46314609F02DF923E0B4F5FC7F77
:104BF00010D3B4F5007F0DD2A4F5FC7464024FF617
:104C0000FF7000EA4525114908192A46314609F086
:104C100019F90FE0B4F57E7F0CD3A4F57E7464021D
:104C20004FF6FF7000EA4525094908192A46314622
:104C300009F008F90020BDE8F0810020704700006D
:104C40003C0C00203C1C00203C5C00203C6C002004
:104C50003C8C002070477047704770477047704722
:104C6000704700001EB50246002000230293019306
:104C70000093D36F9B8802934C78BDF8083064F39F
:104C8000820302930C78BDF8083064F34A23029340
:104C9000CC78BDF8083064F3071302938C78BDF824
:104CA000083064F341030293BDF80840D36F9C8041
:104CB0001EBD30B585B002460020D36F9B8804939B
:104CC00000297CD0BDF81030C3F34003002B63D023
:104CD000D368DB880093BDF80030BDF81040C4F302
:104CE00002150124AC4023439BB20093BDF8003071
:104CF000D468E380BDF81030C3F3031402F15C0301
:104D000053F82430DB780293BDF81030C3F38003EE
:104D10003BB39DF8083023F08003803302939DF865
:104D2000083023F01003103302939DF8083023F06D
:104D300004031B1D02939DF80840BDF81030C3F317
:104D4000031502F15C0353F82530DC70BDF8103018
:104D500023F001035B1C0493BDF81040D36F9C80CB
:104D600022E19DF8083023F0100302939DF80840DB
:104D7000BDF81030C3F3031502F15C0353F825307E
:104D8000DC70BDF8103023F001035B1C0493BDF808
:104D90001040D36F9C8007E1D3681B890193BDF855
:104DA0000430BDF81040C4F302150124AC40234385
:104DB0009BB20193BDF80430D468238100E051E038
:104DC000BDF81030C3F3031402F15C0353F8243030
:104DD000DB790393BDF81030C3F380033BB39DF838
:104DE0000C3023F08003803303939DF80C3023F0C4
:104DF0002003203303939DF80C3023F0080308337D
:104E000003939DF80C40BDF81030C3F3031502F175
:104E10005C0353F82530DC71BDF8103023F001033A
:104E20005B1C0493BDF81040D36F9C80BCE09DF8E0
:104E30000C3023F0200303939DF80C40BDF8103094
:104E4000C3F3031502F15C0353F82530DC71BDF8A0
:104E5000103023F001035B1C0493BDF81040D36FA6
:104E60009C80A1E0BDF81030C3F34003F3B3D368D6
:104E7000DB880093BDF80030BDF81040C4F3021584
:104E80000124AC40A3430093BDF80030D468E38014
:104E9000BDF81030C3F3031402F15C0353F824305F
:104EA000DB780293BDF81030C3F380032BB39DF879
:104EB000083023F0800302939DF8083023F010039C
:104EC00002939DF8083023F0040302939DF80840F4
:104ED000BDF81030C3F3031502F15C0353F825301D
:104EE000DC70BDF8103023F0010300E00FE0049304
:104EF000BDF81040D36F9C8056E0BDF8103023F011
:104F000001030493BDF81040D36F9C804CE0D3683C
:104F10001B890193BDF80430BDF81040C4F302159D
:104F20000124AC40A3430193BDF80430D46823812D
:104F3000BDF81030C3F3031402F15C0353F82430BE
:104F4000DB790393BDF81030C3F380031BB39DF8E6
:104F50000C3023F0800303939DF80C3023F02003E2
:104F600003939DF80C3023F0080303939DF80C4045
:104F7000BDF81030C3F3031502F15C0353F825307C
:104F8000DC71BDF8103023F001030493BDF810402C
:104F9000D36F9C8008E0BDF8103023F00103049328
:104FA000BDF81040D36F9C8005B030BD7CB5044681
:104FB0000D460026002001900090686820F0030054
:104FC00001900199E06F8160A86800900099E06FFE
:104FD000C16001212046FFF76CFE30467CBD10B554
:104FE0000246002031B1D36F5B6843F00104D36FF8
:104FF0005C6004E0D36F5B680024D36F5C6010BD1D
:1050000070B5044600257CB1082C0DD0102C0BD0B7
:10501000202C09D0402C07D0802C05D0B4F5807FFF
:1050200002D0B4F5007F00D104E040F24111FE4807
:10503000FCF7D2FA402C16D006DC082C0DD0102C30
:105040000DD0202C17D10CE0802C0ED0B4F5807F31
:105050000DD0B4F5007F0ED10BE000250CE001254A
:105060000AE0022508E0032506E0042504E0052502
:1050700002E0062500E000BF00BF284670BD0246E2
:1050800000208A4201D9134600E00B46C3F3CF004B
:10509000704770472DE9FC4104460D4616461F46F1
:1050A000DDF820800020019000909DF8040020F0A1
:1050B0000800083001909DF8000020F0100010302A
:1050C0000090E068857305EB850104F53B7000EB0B
:1050D000C100008981B204F15C0050F82500818094
:1050E000C6F3CF01606BC1803846FFF789FF616B63
:1050F000C8709DF8001004F15C0050F82500817123
:1051000005EB850104F1940000EBC100008981B238
:1051100004F15C0050F825000180F019C0F3CF01C4
:10512000606B81804046FFF76BFF616B88709DF874
:10513000041004F15C0050F825008170BDE8FC818A
:1051400008B500210091FF21C26891729DF80010FE
:1051500021F00201891C00919DF8001021F001014D
:10516000491C00919DF80010C268D172FE21C268EE
:105170001181FF21C268D18008BD38B504460025E1
:10518000E068407800909DF8000020F00100401C8D
:1051900000909DF8000020F00800083000909DF875
:1051A0000000E16848701920FFF752FC9DF80000EC
:1051B00020F0080000909DF80000E168487003208E
:1051C000FFF735FC284638BD2DE9FF4304460E465F
:1051D00015461F464FF00009C846E07868B900BF81
:1051E00008E016F8011B04F1140050F825000170C6
:1051F00008F10108B845F4D34FE0012D08D13DB1C5
:1052000005EB850104F1940000EBC100006970B961
:105210004FF0000808E016F8011B04F1140050F8E4
:105220002500017008F10108B845F4D335E0E06FBE
:105230008088009005EB850104F1940000EBC1002B
:1052400000690290039701A92046FFF7AFFEBDF861
:10525000000020F4C0600090BDF8000020F0F000D5
:1052600010300090BDF8000020F0080008300090D9
:10527000BDF8000020F004000090BDF8000020F010
:105280000200801C0090BDF8000020F00100401CCE
:105290000090BDF80010E06F8180484604B0BDE882
:1052A000F0832DE9F04104460025D81C4FEAE07850
:1052B00000EB98784FEAA8070E4604F1140050F866
:1052C00022C000BF07E004F1140050F8220000687B
:1052D00030606D1C361DBD42F5D30846BDE8F08137
:1052E00070B502460C46002300200025D57001252C
:1052F000957040259580012C0BD14C4B0125D57222
:1053000008251570042555704D02D58002251572AB
:1053100009E044B9454B0025D572082515700425D0
:1053200055705D15D580D36003F11005156100211E
:1053300008E003F1200505EB810602F1140545F8AC
:105340002160491C0829F4D303F160055563103529
:105350009563002108E003F1800505EBC10602F129
:105360003C0545F82160491C0829F4D3002108E0D8
:1053700003F5807505EB011602F15C0545F8216027
:10538000491C0829F4D3002108E003F5007505EB5A
:10539000011602F17C0545F82160491C0029F4D072
:1053A00003F540758026B55060358426B55070BD34
:1053B0000146002070470146002002221C4B1A6063
:1053C0007047014600200222194B80331A60704753
:1053D000F8B504460E4600252069807800909DF8B7
:1053E000000000F0010028B19DF8000020F0080046
:1053F000083000909DF80010206981700320FFF7AD
:1054000016FB2846F8BD38B504460025206980798A
:1054100000909DF8000000F0010060B19DF80000D0
:1054200020F01000103005E09C0C0101000C004041
:1054300000E100E000909DF80010206981710320D8
:10544000FFF7F5FA284638BD7CB504460D46002620
:1054500000200190606B00780090012D1AD19DF81A
:10546000040020F00100401C01909DF80400E16858
:1054700048709DF8000020F00400001D00909DF889
:10548000000020F00100401C00909DF80010606BAF
:10549000017025E025BB9DF8000020F0040000907D
:1054A0009DF8040020F00100401C01909DF80000D0
:1054B00020F0010000909DF8040020F040004030F2
:1054C00001909DF80010606B01709DF80400E16888
:1054D000487004F24451C4F8F8120821C4F80013CB
:1054E0003220FFF7B5FA30467CBD0146486B0078A4
:1054F000C0F38000704700B502461046FFF7F5FF85
:10550000012801D0012000BD0020FCE700B50246C3
:105510001046FFF7EAFF012800D100BD0020FCE79C
:1055200001460020CA68907ACA68D27A1040704753
:105530000146C868807A70477CB504460025002083
:10554000E168C872E16888722046FFF7F9FDE078EB
:1055500001280CD1E06F80880090BDF8000020F099
:10556000080008300090BDF80010E06F8180E0680E
:10557000C07A01909DF8040020F0200020300190B6
:105580009DF8040020F00800083001909DF8040008
:1055900020F00400001D01909DF80400E168C8722D
:1055A00028467CBD70B588B0044600260025002042
:1055B000079005909DF81C0020F008000830079027
:1055C0009DF8140020F0100010300590E07A0128BA
:1055D00055D103212046FFF75CFD0020E168887368
:1055E0000021606BC1804020FFF70AFD616BC8702D
:1055F0000021606B81804020FFF702FD616B8870A5
:105600004025402003462A46012100902046FFF70E
:1056100041FD8035402003462A4602210090204665
:10562000FFF738FD8035402003462A4603210090CD
:105630002046FFF72FFD8035002003462A4604212F
:1056400000902046FFF726FD00BF002003462A46B3
:10565000052100902046FFF71DFD00BF00200346F6
:105660002A46062100902046FFF714FD00BF0020C7
:1056700003462A46072100902046FFF70BFDE0680D
:10568000807A0020E168C872E1688872E168088168
:10569000E1688880E168C880E1684880E1688873D3
:1056A000E078012819D1206EC07806909DF8180086
:1056B00020F0100006909DF81810206EC170002098
:1056C0008DF808008DF8090001208DF80A008DF88A
:1056D0000B0002A92046FFF7C5FA2046FFF72CFF72
:1056E000304608B070BD01460020022070470146D8
:1056F000002070471CB5024600204B78012B0BD1CF
:105700000C78A3409BB20093D368DB88BDF80040BF
:105710002343D468E3800BE00C780123A3409BB2C1
:105720000193D368DB88BDF804402343D468E38049
:105730001CBD1CB5024600204B78012B0BD10C7808
:10574000A3409BB20093D368DB88BDF80040A3431D
:10575000D468E3800BE00C780123A3409BB2019353
:10576000D368DB88BDF80440A343D468E3801CBD44
:10577000FFB505460C460026607801287DD1E87803
:10578000012855D1E86F80880090BDF80000C0F373
:10579000800000284CD12078012849D1D4E90501A6
:1057A000401AE061E069002842D0A168E0698842BF
:1057B00026D904F10C00A1690144207800EB800295
:1057C00005F1940000EBC2000161A769E068C1190E
:1057D000208983B222782846FFF7F6FCA168A069E9
:1057E0000844A061D4E90501884204D3D4E9050145
:1057F000401AE0611CE00020E0616069A06117E0F0
:10580000A169E0680144207800EB800205F1940072
:1058100000EBC2000161A769E068C119A08B83B2E7
:1058200022782846FFF7D0FC6069A0610020E06183
:10583000E87810B12078012828D0217805F15C00A3
:1058400050F8210080780390D4E90501401AE06106
:10585000E069E0B9A369E068C1182278002328460E
:10586000FFF7B2FC6069A0610020E0619DF80C00C8
:1058700020F00100401C039000E051E09DF80C1066
:10588000227805F15C0050F822008170A8E0A16840
:10589000E069884228D9A769E068C119208983B2E4
:1058A00022782846FFF790FCA168A0690844A0610F
:1058B000D4E90501884204D3D4E90501401AE06126
:1058C00003E00020E0616069A0619DF80C0020F019
:1058D0000100401C03909DF80C10227805F15C003B
:1058E00050F8220081707BE0A769E068C119A08BA5
:1058F00083B222782846FFF767FC6069A061002028
:10590000E0619DF80C0020F00100401C03909DF820
:105910000C10227805F15C0050F8220081705FE0E5
:10592000E878012803D1E86F8088009000BFE8780C
:1059300058B1BDF80000C0F303102178884204D1AB
:10594000BDF80000C0F38000C0BB217805F15C0009
:1059500050F8210080790290606988B90020E061E8
:105960006069A0619DF8080020F0010002909DF898
:105970000810227805F15C0050F8220081712FE0B8
:10598000217805F15C0050F8210000890190A76999
:10599000E068C119BDF8043022782846FFF781FC81
:1059A000BDF80410A0690844A061D4E9050188424B
:1059B00005D3D4E90501401AE06104E010E00020BD
:1059C000E0616069A0619DF8080020F0010002908C
:1059D0009DF80810227805F15C0050F822008171D2
:1059E000304604B0F0BDFCB505460C460026002745
:1059F000002001902869807800906078012861D1AA
:105A0000D4E90501401AE061E069D8B9A08A83B2FF
:105A100000222846E168FFF7D7FB6069A0610020FB
:105A2000E0619DF8000020F00200801C00909DF8CD
:105A3000000020F00800083000909DF80010286950
:105A400081703CE0A168E06988421BD9A269E068E6
:105A50008118208983B200222846FFF7B5FBA16890
:105A6000A0690844A061D4E90501401AE0619DF8ED
:105A7000000020F00200801C00909DF800102869B2
:105A800081701CE0A269E0688118A08B83B20022BB
:105A90002846FFF799FB6069A0610020E0619DF84E
:105AA000000020F00200801C00909DF8000020F013
:105AB0000800083000909DF8001028698170E8788F
:105AC00008B900E000BF3046FCBD3EB502460020EC
:105AD0004B78012B25D10B78ABB10C7802F15C032C
:105AE00053F824309B7801939DF8043023F0100381
:105AF000103301939DF804400D7802F15C0353F8D4
:105B000025309C7032E013699B7802939DF8083031
:105B100023F02003203302939DF8084013699C7002
:105B200024E00B78ABB10C7802F15C0353F824301D
:105B30009B7900939DF8003023F0200320330093DD
:105B40009DF800400D7802F15C0353F825309C71FC
:105B50000CE013699B7802939DF8083023F0200332
:105B6000203302939DF8084013699C703EBD3EB5FA
:105B7000024600204B78012B25D10B78ABB10C7875
:105B800002F15C0353F824309B7801939DF80430B4
:105B900023F02003203301939DF804400D7802F197
:105BA0005C0353F825309C7032E013699B780293B4
:105BB0009DF8083023F004031B1D02939DF8084054
:105BC00013699C7024E00B78ABB10C7802F15C0394
:105BD00053F824309B7900939DF8003023F0400364
:105BE000403300939DF800400D7802F15C0353F8B8
:105BF00025309C710CE013699B7802939DF8083066
:105C000023F004031B1D02939DF8084013699C7048
:105C10003EBD0146C8688288C8680089024002F01B
:105C2000FE00704710B50246D3689B8801248C4063
:105C300003EA0400D3681B89184010BD0146C868F8
:105C40004288C868C0880240D0B27047704738B5F3
:105C50000446E068407800909DF8000020F00400C1
:105C6000001D00909DF80000E16848700A20FEF7D2
:105C7000EFFE9DF8000020F0040000909DF8000069
:105C8000E168487038BD704770473CB50346002056
:105C90000024019400944C78012C17D10D7803F165
:105CA0005C0454F82540A21C147801949DF804402B
:105CB000C4F340140CB1102027E09DF80440C4F355
:105CC00080040CB1202020E030201EE00D7803F18C
:105CD0005C0454F82540A21D147800949DF80040FF
:105CE000C4F3801414B14FF480500EE09DF80040CE
:105CF000C4F3C00424B99DF80040C4F3800414B177
:105D00004FF4005001E04FF440503CBDFCB5074655
:105D10000D4614460020019000906878012838D183
:105D2000297807F15C0050F82100861C307801903A
:105D3000102C04D129463846FFF7C7FEFCBD202CA5
:105D400023D0302C20D19DF80400C0F3401020B99E
:105D50009DF80400C0F3001030B10020687129469E
:105D60003846FFF704FFE9E79DF8040020F0100033
:105D700001909DF8040020F0200001909DF804009F
:105D800020F00400019000E000BF9DF80400307096
:105D900041E0297807F15C0050F82100861D307839
:105DA0000090B4F5805F06D19DF8000020F020003F
:105DB000203000902CE0B4F5005F29D0B4F5405FAE
:105DC00025D19DF80000C0F3401020B99DF80000D7
:105DD000C0F3801030B10020687129463846FFF7C3
:105DE000C6FEABE79DF8000020F0200000909DF873
:105DF000000020F0400000909DF8000020F0080016
:105E000000909DF8000020F00400009000E000BF2A
:105E10009DF80000307000BF90E72DE9F041064684
:105E20000F4639463046FFF75BFA01218A2081553B
:105E300000218C208155002511E005EB850106F13C
:105E4000940000EBC104012060702570E580002003
:105E5000E0704020A0600020E06060616D1C707800
:105E6000A842EAD8002510E005EB850106F53B7055
:105E700000EBC104002060702570E580E0704020D8
:105E8000A0600020E06060616D1C7078A842EBD8D3
:105E90003046FFF796FA3046FFF78AFA002130467F
:105EA000FFF7D2FA3046FFF77DFB3046FFF783FA63
:105EB000BDE8F0812DE9F04106460D4690461F46AB
:105EC00005F08000802808D105F07F0000EB8001FC
:105ED00006F1940000EBC10407E005F07F0000EB41
:105EE000800106F53B7000EBC10405F07F002070D7
:105EF00005F08000C0096070C4F80880E770607821
:105F000008B12078E080022F01D1002020712146C5
:105F10003046FFF7EFFB0020BDE8F08170B5064684
:105F20000C4604F08000802808D104F07F0000EBCC
:105F3000800106F1940000EBC10507E004F07F004A
:105F400000EB800106F53B7000EBC10504F07F001B
:105F5000287004F08000C009687029463046FFF7B9
:105F6000E8FB002070BD2DE9F04105460E461746BE
:105F7000984606F07F0000EB800105F53B7000EBD2
:105F8000C104E760C4F814800020A061607006F0CE
:105F90007F002070E878012800D12761207820B99F
:105FA00021462846FFF71FFD03E021462846FFF75C
:105FB000DFFB0020BDE8F0812DE9F04107460D46EA
:105FC0001646984605F07F0000EB800107F194002B
:105FD00000EBC1040120607005F07F002070E660D6
:105FE00026610020A061C4F81480207820B92146E1
:105FF0003846FFF7F8FC03E021463846FFF7B8FBC8
:106000000020BDE8F08170B506460C4604F0800023
:10601000802808D104F07F0000EB800106F1940095
:1060200000EBC10505E004EB840106F53B7000EBD5
:10603000C1050120A87004F07F002870C4F3C010CF
:10604000687029463046FFF740FD002070BD70B5EE
:1060500006460C4604F08000802808D104F07F003A
:1060600000EB800106F1940000EBC10505E004EBB4
:10607000840106F53B7000EBC1050020A87004F018
:106080007F002870C4F3C010687029463046FFF7BF
:106090006EFD002070BD70B505460C4604F0800012
:1060A000802805D104F07F012846FFF791F902E02E
:1060B0002846FFF7A8F9002070BD08B5002200921D
:1060C0009DF8002061F306020092C26812789DF8E4
:1060D00000301A43C3681A7008BD38B50446E0683A
:1060E000407800909DF8000020F040004030009083
:1060F0009DF80000E16848700320FEF7A9FC38BD58
:1061000038B50446E068407800909DF8000020F023
:10611000400000909DF80000E16848700320FEF701
:1061200097FC38BD2DE9F04105460C46002704F0E8
:106130008000802808D104F07F0000EB800105F189
:10614000940000EBC10605E004EB840105F53B700B
:1061500000EBC10631462846FFF797FD0746384653
:10616000BDE8F0812DE9F04105460C46174604F0E4
:106170008000802808D104F07F0000EB800105F149
:10618000940000EBC10605E004EB840105F53B70CB
:1061900000EBC1063A4631462846FFF7B7FDBDE899
:1061A000F081000070B588B004460D460026E06F0F
:1061B00080880690E06F0078079005F001000028C5
:1061C0007DD0BDF81800C0F38000002878D0BDF85D
:1061D0001800C0F34000002873D0BDF81800C0F3C9
:1061E000031104F15C0050F82100807801909DF8C3
:1061F000040020F00100401C01909DF80410BDF83F
:106200001800C0F3031204F15C0050F82200817002
:10621000BDF81800C0F3031000EB800104F19400F6
:1062200000EBC1004169BDF81800C0F3031000EB9A
:10623000800204F1940000EBC200806981425BD9C6
:10624000BDF81800C0F3031000EB800104F19400C6
:1062500000EBC100C0680178BDF81800C0F303105E
:1062600000EB800204F1940000EBC2008069084456
:106270000490BDF81800C0F3031000EB800104F196
:10628000940000EBC1004169BDF81800C0F3031091
:1062900000EB800204F1940000EBC2008069081A50
:1062A0000590BDF81800C0F3031000EB800104F165
:1062B000940000EBC1004169BDF8180002E02BE337
:1062C000AEE01EE0C0F3031000EB800204F1940086
:1062D00000EBC20081610021BDF81800C0F303107B
:1062E00000EB800204F1940000EBC200C16103A93D
:1062F0002046FEF75BFE0EE300212046FEF7D9FCA8
:1063000009E3BDF81800C0F3031104F15C0050F874
:106310002100807902909DF8080020F00100029091
:106320009DF80810BDF81800C0F3031204F15C00DA
:1063300050F822008171BDF81800C0F3031000EB83
:10634000800104F53B7000EBC1004169BDF8180005
:10635000C0F3031000EB800204F53B7000EBC200B9
:106360008069814257D9BDF81800C0F3031000EBD3
:10637000800104F53B7000EBC100C0680178BDF8F6
:106380001800C0F3031000EB800204F53B7000EB33
:10639000C200806908440490BDF81800C0F30310DF
:1063A00000EB800104F53B7000EBC1004169BDF8D2
:1063B0001800C0F3031000EB800204F53B7000EB03
:1063C000C2008069081A0590BDF81800C0F30310D8
:1063D00000EB800104F53B7000EBC1004169BDF8A2
:1063E0001800C0F3031000EB800204F53B7000EBD3
:1063F000C20081610021BDF81800C0F3031000EB5A
:10640000800204F53B7000EBC200C16103A9204685
:10641000FEF7CCFD7FE200212046FEF74AFC7AE23F
:10642000BDF81800C0F3400000287CD0BDF818006B
:10643000C0F3031104F15C0050F821008078019052
:106440009DF8040020F00100401C01909DF804100C
:10645000BDF81800C0F3031204F15C0050F82200EC
:106460008170BDF81800C0F3031000EB800104F147
:10647000940000EBC1004169BDF81800C0F303109F
:1064800000EB800204F1940000EBC20080698142BD
:10649000C0D9BDF81800C0F3031000EB800104F16F
:1064A000940000EBC1004169BDF81800C0F303106F
:1064B00000EB800204F1940000EBC2008069091A2D
:1064C000BDF81800C0F3031000EB800204F1940043
:1064D00000EBC2008068814270D3BDF81800C0F3A1
:1064E000031000EB800104F1940000EBC100C068D0
:1064F0000178BDF81800C0F3031000EB800204F12E
:10650000940000EBC200806908440490BDF81800B4
:10651000C0F3031000EB800104F1940000EBC10014
:106520008068059000E0BEE0BDF81800C0F30310DD
:1065300000EB800104F1940000EBC1004169BDF85B
:106540001800C0F3031000EB800204F1940000EB8C
:10655000C2008068091ABDF81800C0F3031000EBF0
:10656000800204F1940000EBC2008161BDF81800C4
:10657000C0F3031000EB800104F1940000EBC100B4
:106580004169BDF81800C0F3031000EB800204F16C
:10659000940000EBC2008069091ABDF81800C0F32E
:1065A000031000EB800204F1940000EBC200C16113
:1065B00003A92046FEF7FAFCADE1FFE7BDF818009D
:1065C000C0F3031000EB800104F1940000EBC10064
:1065D0004169BDF81800C0F3031000EB800204F11C
:1065E000940000EBC2008069081A57D0BDF818006B
:1065F000C0F3031000EB800104F1940000EBC10034
:10660000C0680178BDF81800C0F3031000EB8002E9
:1066100004F1940000EBC200806908440490BDF8C6
:106620001800C0F3031000EB800104F1940000EBAC
:10663000C1004169BDF81800C0F3031000EB8002EF
:1066400004F1940000EBC2008069081A0590BDF8BF
:106650001800C0F3031000EB800104F1940000EB7C
:10666000C1004169BDF81800C0F3031000EB8002BF
:1066700004F1940000EBC20081610021BDF8180014
:10668000C0F3031000EB800204F1940000EBC200A1
:10669000C16103A92046FEF789FC3CE100212046A8
:1066A000FEF707FB37E1BDF81800C0F3031104F152
:1066B0005C0050F82100807902909DF8080020F0DD
:1066C000010002909DF80810BDF81800C0F30312F5
:1066D00004F15C0050F822008171BDF81800C0F38D
:1066E000031000EB800104F53B7000EBC100416931
:1066F000BDF81800C0F3031000EB800204F53B70F6
:1067000000EBC20080698142C7D9BDF81800C0F310
:10671000031000EB800104F53B7000EBC100416900
:10672000BDF81800C0F3031000EB800204F53B70C5
:1067300000EBC2008069091ABDF81800C0F303100D
:1067400000EB800204F53B7000EBC20080688142E0
:106750006DD3BDF81800C0F3031000EB800104F501
:106760003B7000EBC100C0680178BDF81800C0F3B1
:10677000031000EB800204F53B7000EBC20080695F
:1067800008440490BDF81800C0F3031000EB80012A
:1067900004F53B7000EBC10080680590BDF818005F
:1067A000C0F3031000EB800104F53B7000EBC10067
:1067B0004169BDF81800C0F3031000EB800204F536
:1067C0003B7000EBC2008068091ABDF81800C0F3E6
:1067D000031000EB800204F53B7000EBC200816106
:1067E000BDF81800C0F3031000EB800104F53B7006
:1067F00000EBC1004169BDF81800C0F3031000EBC5
:10680000800204F53B7000EBC2008069091ABDF8F4
:106810001800C0F3031000EB800204F53B7000EB9E
:10682000C200C16103A92046FEF7C0FB73E0BDF8BA
:106830001800C0F3031000EB800104F53B7000EB7F
:10684000C1004169BDF81800C0F3031000EB8002DD
:1068500004F53B7000EBC2008069081A57D0BDF800
:106860001800C0F3031000EB800104F53B7000EB4F
:10687000C100C0680178BDF81800C0F3031000EB38
:10688000800204F53B7000EBC2008069084404906C
:10689000BDF81800C0F3031000EB800104F53B7055
:1068A00000EBC1004169BDF81800C0F3031000EB14
:1068B000800204F53B7000EBC2008069081A059065
:1068C000BDF81800C0F3031000EB800104F53B7025
:1068D00000EBC1004169BDF81800C0F3031000EBE4
:1068E000800204F53B7000EBC20081610021BDF81D
:1068F0001800C0F3031000EB800204F53B7000EBBE
:10690000C200C16103A92046FEF750FB03E000214D
:106910002046FEF7CEF906E0002007909DF81C10F7
:10692000E06F017000BF00BF304608B070BD2DE9B8
:10693000FC4106460D46002705EB850106F1940053
:1069400000EBC104D4E90501471AA068B84200D29F
:10695000A768F81C4FEA900863E0D4E90501471ADC
:10696000F078012832D1012D30D1F06F808800906D
:10697000BDF80000C0F3800040BBA068B84200D260
:10698000A76805EB850106F1940000EBC1010C310D
:1069900005EB850200EBC2008069014405EB85022E
:1069A00006F1940000EBC2000161D4F818C0E06861
:1069B00000EB0C01BBB2EAB23046FEF705FCA06961
:1069C0003844A061D4E90501401AE061F07808B1CB
:1069D000012D26D0A068B84200D2A768F81C4FEA63
:1069E000900806F15C0050F8250080780190D4F8FA
:1069F00018C0E06800EB0C01BBB2EAB23046FEF70B
:106A0000E3FB9DF8040020F00100401C01909DF87C
:106A1000041006F15C0050F825008170A06938442C
:106A2000A061D4E90510884202D26069002894D19F
:106A30000120BDE8FC81FEB505460E46002401E2BA
:106A400006F0010000287DD005F15C0050F824001C
:106A50008078029005F15C0050F82400C078019025
:106A60009DF8080000F0010000286CD1E8780128AA
:106A70006AD1E86F80880090012CF9D1BDF8000040
:106A8000C0F380000028F3D104EB840105F19400E9
:106A900000EBC10004EB8402416905F1940000EBB6
:106AA000C2008069091A04EB840205F1940000EB2E
:106AB000C200806881425FD304EB840105F1940039
:106AC00000EBC1010C3104EB840200EBC2008069D1
:106AD000014404EB840205F1940000EBC200016163
